:100000000C9472000C9486000C9486000C9486006C
:100010000C9486000C9486000C9486000C94860048
:100020000C9486000C9486000C9486000C94860038
:100030000C9486000C9486000C9486000C94860028
:100040000C9486000C9486000C9486000C94860018
:100050000C9486000C9486000C9486000C94F1039A
:100060000C9486000C94F6040C942C050C948600D9
:100070000C9486000C9486000C9486000C948600E8
:100080000C9486000C9486000C9486000C948600D8
:100090000C943E060C9470050C9486000C9486001B
:1000A0000C9486000C9486000C9486000C948600B8
:1000B0000C9486000C9486000C9486000C948600A8
:1000C0000C9486000C9486000C9486000C94860098
:1000D0000C9486000C9486000C94F8050C94B405DE
:1000E0000C94860011241FBECFEFD1E2DEBFCDBF3E
:1000F00000E00CBF18E0A0E0B2E001C01D92A03506
:10010000B107E1F70E94CE030C94CD060C940000D9
:100110000895DF93CF9300D00F920F92CDB7DEB743
:1001200089834A835B836C837D832A813B814C81F5
:100130005D8160E472E48FE090E00E94AB062150A4
:10014000304089818130A1F0813028F08230D9F0AF
:10015000833081F523C01092C0003093C5002093F6
:10016000C40088E98093C10086E08093C20022C069
:100170003093CD002093CC0088E88093C90086E0BE
:100180008093CA0017C03093D5002093D40088E034
:100190008093D1008EE08093D2000CC01092300189
:1001A000309335012093340188E88093310186E053
:1001B000809332010F900F900F900F900F90CF917E
:1001C000DF910895DF93CF930F92CDB7DEB76983A8
:1001D00099819130F1F0913030F0923081F193308B
:1001E00009F04AC034C0E0914908F0914A08E55B43
:1001F000F94F80838091490890914A080196909325
:100200004A0880934908E1ECF0E0808180628083B5
:1002100033C0E0910F04F0911004EF5EFD4F808336
:1002200080910F0490911004019690931004809394
:100230000F04E9ECF0E08081806280831DC0E0ED76
:10024000F0E0908195FFFDCF8093D60015C0E0913E
:100250002C06F0912D06E25DFB4F808380912C06E9
:1002600090912D06019690932D0680932C06E1E344
:10027000F1E08081806280830F90CF91DF910895BB
:100280000F93DF93CF9300D000D0CDB7DEB7898333
:100290006A834B833D832C830E83E1E3F1E080810D
:1002A0008F7E80838081886080836E818FEF0E9443
:1002B000E2006E818FEF0E94E20089816E810E94D0
:1002C000E2008B816E818D5F0E94E2006E8183E08F
:1002D0000E94E2008A816E810E94E2008C819D81F1
:1002E0006E810E94E2008B818230D0F08C819D81F2
:1002F0006E81892F0E94E20069818A814C815D8133
:100300002C813D81232F3327240F311D90E0860F50
:10031000911D0896820F931F9070809590950DC047
:1003200049818A812C813D8190E0840F911D07963F
:10033000820F911D9070809590956E810E94E200D1
:1003400026960FB6F894DEBF0FBECDBFCF91DF91DA
:100350000F910895813079F0813028F0823099F042
:10036000833009F518C0E0ECF0E080818823ECF7D9
:100370008091C6000895E8ECF0E080818823ECF7D6
:100380008091CE000895E0EDF0E080818823ECF7C5
:100390008091D6000895E0E3F1E080818823ECF7B6
:1003A0008091360108950895FC01E050FE4F1182BE
:1003B0001082FC01EE5FFD4F1182108282509E4F31
:1003C000FC0111821082089598EC899FC0011124CC
:1003D00069E070E00E949806665E7B4F862F972F3B
:1003E0000895DF93CF930F920F92CDB7DEB71A82A5
:1003F000198289819A8127E18037920758F489818F
:100400009A8101969A83898389819A8127E180372D
:100410009207A8F30F900F90CF91DF9108950F935B
:10042000DF93CF930F92CDB7DEB78983898168E0E0
:1004300042E020E030E001E00E9440010E94F10132
:10044000898166E042E020E030E00E9440010F90A8
:10045000CF91DF910F9108950F931F93DF93CF9367
:1004600000D0CDB7DEB789837B836A8389812A81F7
:100470003B8190E06EE170E042E050E001E010E08E
:100480000E9440010F900F900F90CF91DF911F912C
:100490000F9108950F931F93DF93CF9300D0CDB7A3
:1004A000DEB789837B836A83898190E00E940F0293
:1004B0000E94F10189812A813B8190E060E270E035
:1004C00042E050E001E010E00E9440010E94F10192
:1004D0000F900F900F90CF91DF911F910F91089582
:1004E0000F931F93DF93CF930F920F92CDB7DEB789
:1004F00089836A8389812A8190E069E170E041E023
:1005000050E030E001E010E00E9440010F900F90B9
:10051000CF91DF911F910F9108950F931F93DF9358
:10052000CF930F920F92CDB7DEB789836A8389810B
:100530002A8190E068E170E041E050E030E001E0C5
:1005400010E00E9440010F900F90CF91DF911F911A
:100550000F910895DF93CF9300D00F92CDB7DEB700
:1005600089836A834B832C83E9ECF0E080818F7E62
:1005700080838081886080838B818A5F80932A0456
:100580006C818FEF0E94E2006C818FEF0E94E2008D
:1005900089816C810E94E2006C8184E00E94E2000B
:1005A0006C8182E00E94E2008A816C810E94E200FC
:1005B0008B816C810E94E20039818A812B816C8160
:1005C00090E0830F911D0696820F911D80950E94E9
:1005D000E200A8ECB0E0E9ECF0E041E050E060E0DF
:1005E00070E03C912081CA0136FDCB0130E02072E1
:1005F0003070822B932B0097A1F7E9ECF0E080811B
:10060000877F80838081806180830F900F900F901F
:100610000F90CF91DF9108950F93DF93CF9300D088
:10062000CDB7DEB789837B836A83898168E042E046
:100630002FEF3FE001E00E944001898166E042E047
:1006400020E030E00E9440010F900F900F90CF917A
:10065000DF910F910895DF93CF930F920F92CDB753
:10066000DEB79A838983FC01418B6083E981FA813B
:1006700081E0808B15821482178216828FEF93E0BF
:1006800092838183CE0101960E9488000F900F9083
:10069000CF91DF91089580E285B987E284B985B171
:1006A000866285B981E58CBD08952D9808952D9AAF
:1006B00008958EBD0DB407FEFDCF8EB508950DB41F
:1006C00007FEFDCF8EB508950F931F93082F162FA9
:1006D0000E945503802F0E945903812F0E945903C5
:1006E0000E9457031F910F9108951F93182F0E9486
:1006F0005503812F80680E945903812F8F5F0E94CC
:100700005903182F0E945703812F1F9108950E94AB
:1007100055038AE60E94590380E10E9459030E9412
:1007200057030E9455038DE10E94590386E00E9401
:1007300059030E9457030E9455038AE10E945903FE
:1007400086E00E9459030E9457030E9455038BE1E3
:100750000E94590388E10E9459030E9457030E9496
:1007600055038CE10E94590388E00E9459030E94BE
:1007700057030E94550387E30E94590382E00E94B9
:1007800059030E9457030E9455038AE00E945903AF
:1007900086E10E9459030E945703089580E040E0DB
:1007A00051EE60E070E00E9489008BE496E00E94C8
:1007B000D401789481E160E00E94E2000E944B0342
:1007C0000E9487038BE30E94750360E00E94E200B1
:1007D0008BE30E94750360E00E94E2000E94F10139
:1007E000F7CF1F920F920FB60F920BB60F921124F4
:1007F0000F931F932F933F934F935F936F937F9329
:100800008F939F93AF93BF93EF93FF93DF93CF9318
:100810000F920F92CDB7DEB780914F0880FF77C05F
:1008200080914A078134C9F540914B07E0914C070C
:1008300080914C0790914E0750E04F7C507028EE0D
:1008400033E0429FB001439F700D529F700D112401
:10085000F0E0EF7CF07044E650E0E49F9001E59F0B
:10086000300DF49F300D1124620F731F9F7C690FB0
:10087000711D90E08F7C90709C01220F331F880FB8
:10088000991F880F991F880F991F820F931F680F58
:10089000791F88EC0E942C0238C040914B07E091F0
:1008A0004C0780914C0790914E0750E04F7C507060
:1008B00028EE33E0429FB001439F700D529F700DB0
:1008C0001124F0E0EF7CF07044E650E0E49F9001EA
:1008D000E59F300DF49F300D1124620F731F9F7C34
:1008E000690F711D90E08F7C90709C01220F331F67
:1008F000880F991F880F991F880F991F820F931FC8
:10090000680F791F84E60E942C0210924F08809194
:100910001504882309F451C020911803922F80E018
:100920009A8389832091170389819A81820F911D6F
:100930009A83898389819A819093230480932204E6
:1009400089819A8160E177E20E94840608EE13E0D3
:10095000B8010E948406862F805D60E00E94E2005C
:1009600089819A81B8010E94840604E610E0B801EA
:100970000E948406862F805D60E00E94E2008981EB
:100980009A81B8010E9484060AE010E0B8010E9432
:100990008406862F805D60E00E94E20089819A8152
:1009A000B8010E948406805D60E00E94E2008DE054
:1009B00060E00E94E200109215040F900F90CF911A
:1009C000DF91FF91EF91BF91AF919F918F917F91B7
:1009D0006F915F914F913F912F911F910F910F90C8
:1009E0000BBE0F900FBE0F901F9018951F920F9285
:1009F0000FB60F920BB60F9211248F939F93EF9324
:100A0000FF93E0914B08F0914C088091C600E65BA3
:100A1000F84F808380914B0890914C0801969093F9
:100A20004C0880934B0880914B0890914C0885307E
:100A3000910538F010924C0810924B0881E0809399
:100A40004F08FF91EF919F918F910F900BBE0F90E8
:100A50000FBE0F901F9018951F920F920FB60F9216
:100A60000BB60F9211242F933F938F939F93EF9385
:100A7000FF93E0914D08F0914E08E55BF94F8081BE
:100A80008093C60080914D0890914E0801969093F6
:100A90004E0880934D0820914D0830914E0880916A
:100AA000490890914A082817390768F0E1ECF0E00E
:100AB00080818F7D808310924A081092490810929D
:100AC0004E0810924D08FF91EF919F918F913F91A9
:100AD0002F910F900BBE0F900FBE0F901F90189587
:100AE0001F920F920FB60F920BB60F9211242F93F5
:100AF0003F938F939F93EF93FF93E0911304F091B3
:100B00001404EF5EFD4F80818093CE00809113042A
:100B100090911404019690931404809313042091EF
:100B200013043091140480910F049091100428173D
:100B3000390768F0E9ECF0E080818F7D80831092C6
:100B4000100410920F041092140410921304FF91D9
:100B5000EF919F918F913F912F910F900BBE0F902E
:100B60000FBE0F901F9018951F920F920FB60F9205
:100B70000BB60F9211242F933F938F939F93EF9374
:100B8000FF93E0913006F0913106E25DFB4F8081EA
:100B900080933601809130069091310601969093B2
:100BA00031068093300620913006309131068091D5
:100BB0002C0690912D062817390768F0E1E3F1E043
:100BC00080818F7D808310922D0610922C061092CA
:100BD000310610923006FF91EF919F918F913F91D6
:100BE0002F910F900BBE0F900FBE0F901F90189576
:100BF0001F920F920FB60F920BB60F9211242F93E4
:100C00003F938F939F93EF93FF93E0912E06F09184
:100C10002F0680913601E35DFA4F808380912E0686
:100C200090912F06019690932F0680932E06209187
:100C30002E0630912F0680912A0490E002968217AA
:100C4000930778F410922F0610922E0681E080937D
:100C50003206E1E3F1E080818F7E808380818860CD
:100C60008083FF91EF919F918F913F912F910F90F2
:100C70000BBE0F900FBE0F901F9018951F920F92F2
:100C80000FB60F920BB60F9211242F933F938F93B1
:100C90009F93EF93FF93E0911104F09112048091E0
:100CA000CE00E05FFC4F808380911104909112048C
:100CB00001969093120480931104209111043091B5
:100CC000120480912A0490E002968217930778F428
:100CD000109212041092110481E080931504E9EC43
:100CE000F0E080818F7E8083808188608083FF91A7
:100CF000EF919F918F913F912F910F900BBE0F908D
:100D00000FBE0F901F901895AA1BBB1B51E107C087
:100D1000AA1FBB1FA617B70710F0A61BB70B881F8B
:100D2000991F5A95A9F780959095BC01CD0108951A
:100D300097FB092E07260AD077FD04D0E5DF06D001
:100D400000201AF4709561957F4F0895F6F79095FD
:100D500081959F4F0895A1E21A2EAA1BBB1BFD018E
:100D60000DC0AA1FBB1FEE1FFF1FA217B307E4078A
:100D7000F50720F0A21BB30BE40BF50B661F771FE2
:100D8000881F991F1A9469F76095709580959095C2
:0E0D90009B01AC01BD01CF010895F894FFCF87
:00000001FF
